:100000000C947E010C94A6010C94A6010C94610939
:100010000C9461090C9461090C94A6010C94A6013E
:100020000C94A6010C94A6010C94A6010C94A601B4
:100030000C94A6010C94A6010C94A6010C94A601A4
:100040000C945F270C94A6010C940D250C943E256E
:100050000C94A6010C94A6010C94A6010C94A60184
:100060000C9493060C94A601253032752F2530325E
:10007000752F2530347520253032753A253032758C
:100080003A2530327500496E697420646F6E650AD6
:100090000049502041646472657373203A004F4BED
:1000A0000D0A005374617475733A200053746172C1
:1000B00074696E6720444843502E2E0D0A000D0AC5
:1000C0000043757272656E74204253534944204D4B
:1000D00041433A200043757272656E742053534950
:1000E000443A20000D0A004F4B0D0A00436F6E6E1C
:1000F000656374696E672041502E2E2E00466F7521
:100100006E642000206E6574776F726B730D0A0049
:1001100053657474696E67206D6F64652053544134
:1001200054494F4E5F4D4F44450D0A0050415353C3
:100130003A2000535349443A20006F70656E526F65
:100140006F74206661696C656400766F6C2E696EF1
:100150006974206661696C6564210A006361726478
:10016000206661696C65640A0053657474696E6722
:1001700020757020534420636172642E2E2E0A0075
:100180000D0A004D41433A20004F4B0D0A005265C5
:1001900073657474696E672046697368696E6F2E43
:1001A0002E2E00467265652052414D3A20003A00DD
:1001B0007C3C3E5E2B3D3F2F5B5D3B2C2A225C004E
:1001C000506C656173652075706461746520746836
:1001D0006973206C696272617279004669726D7729
:1001E0006172652076657273696F6E200020697395
:1001F00020746F6F206E65770D0A00506C65617317
:1002000065207570677261646520746F2061742069
:100210006C6561737420002E002E004669726D7744
:100220006172652076657273696F6E200020697354
:1002300020746F6F206F6C640D0A00455350204E80
:100240004F5420464F554E44202D2048414C544990
:100250004E472E005354494C4C204E4F542042558B
:1002600053590A0020627974650072656365697686
:10027000696E670073656E64696E670046697368CE
:10028000696E6F206275737920000000000800021B
:10029000010000030407000000000000000001024C
:1002A0000408102040800102040810200102040804
:1002B00010200404040404040404020202020202E2
:1002C00003030303030300000000230026002900AA
:1002D00000000000250028002B0000000000240082
:1002E00027002A00DB049308BC0D98198423B4234B
:1002F000BF23CA236E2507262905B02311241FBE5C
:10030000CFEFD8E0DEBFCDBF11E0A0E0B1E0E8EE76
:10031000FBE502C005900D92A83AB107D9F728E095
:10032000A8EAB1E001C01D92A730B207E1F712E0E0
:10033000C8EFD2E004C02297FE010E944929C43EC2
:10034000D107C9F70E9450270C94E72D0C940000A8
:100350000F931F93CF93DF938C01C0E0D0E0F8019F
:1003600061918F0140E150E087ED95E00E944827C0
:10037000C530D10531F06EEA71E087ED95E00E945D
:1003800054262196C630D10551F7DF91CF911F91A8
:100390000F9108950F931F93CF93DF931F92CDB7C3
:1003A000DEB741E050E0BE016F5F7F4F88EA91E029
:1003B0000E94EE0E019719F4098110E002C00FEFC0
:1003C0001FEFC8010196029738F0C8010E948E2ADB
:1003D000892B39F7802F01C080E00F90DF91CF91FA
:1003E0001F910F910895FF920F931F93CF93DF9367
:1003F000CDB7DEB764970FB6F894DEBF0FBECDBFA2
:1004000021E048E151E065EC71E088EA91E00E946A
:100410005812811106C080E086C0833539F08035DE
:10042000E9F10E94CA018111F8CF78C00E94CA0187
:100430008335A9F70E94CA01893489F70E94CA014D
:10044000843469F70E94CA018A3349F70E94CA01BD
:10045000823229F78E010F5F1F4FF12C0E94CA01D3
:1004600041E04F0D823251F0F42EF80181938F015B
:10047000F5E14F1781F28111F1CFCDCFE1E0F0E04E
:10048000EC0FFD1FEF0DF11D108250E0BE016F5FFC
:100490007F4F80910F02909110023DC00E94CA01CF
:1004A000813409F0BECF0E94CA01833509F0B9CF6B
:1004B0000E94CA01833509F0B4CF0E94CA018A3371
:1004C00009F0AFCF0E94CA01823209F0AACF8E0193
:1004D0000F5F1F4FF12C0E94CA0141E04F0D823285
:1004E00059F0F42EF80181938F01F5E14F1709F4CB
:1004F00092CF8111F0CF8FCFE1E0F0E0EC0FFD1F44
:10050000EF0DF11D108250E0BE016F5F7F4F8091B3
:100510000D0290910E020E94D42A83CF88EA91E0C6
:100520000E94241181E064960FB6F894DEBF0FBEDE
:10053000CDBFDF91CF911F910F91FF9008950F9341
:100540001F93CF93DF93CDB7DEB764970FB6F894C0
:10055000DEBF0FBECDBFFC0185811F928F938481CA
:100560001F928F9383811F928F93808190E080539D
:10057000984F9F938F9382811F928F9381811F92B7
:100580008F9388E690E09F938F931F9284E18F93DF
:100590008E010F5F1F4F1F930F930E94E32AB80134
:1005A00087ED95E00E9479260FB6F894DEBF0FBE66
:1005B000CDBF64960FB6F894DEBF0FBECDBFDF91FE
:1005C000CF911F910F910895CF93DF9300D000D06A
:1005D00000D0CDB7DEB70E94310529833A834B8323
:1005E0005C836D837E83CE0101960E949F0287ED1E
:1005F00095E00E948C2626960FB6F894DEBF0FBEBB
:10060000CDBFDF91CF9108950E94E40260E177E2CF
:1006100080E090E00C94D827EF92FF920F931F9305
:10062000CF93DF9300D000D000D0CDB7DEB726E067
:1006300040E052EC61E070E087ED95E00E94AB2471
:1006400080910308909104088E010F5F1F4F00975F
:1006500021F4C8018750984004C09801281B390B29
:10066000C9019A838983E980FA8063EA71E087EDA2
:1006700095E00E9454264AE050E0B70187ED95E0EE
:100680000E94332763E271E087ED95E00E947926AE
:100690000E94640A8CB58C7F8CBD8DB581608DBD48
:1006A0006EE871E087ED95E00E94542689E995E0B7
:1006B0000E947D1F81110DC066E371E087ED95E01A
:1006C0000E94792664EF71E080E090E00E94D827D4
:1006D000EDCF69E871E087ED95E00E94542663E86C
:1006E00071E087ED95E00E94542689E995E00E942B
:1006F00052210E94A80160E871E087ED95E00E9418
:10070000542661E084E00E94642861E084E00E9455
:100710009D2869E671E087ED95E00E94542681E00E
:1007200080930C0244E060E080E092E00E94B40B11
:10073000811108C06CE571E087ED95E00E945426B8
:1007400010920C0241E060E072E082EE91E00E94C3
:100750008418811111C040E060E072E082EE91E007
:100760000E948418811108C06AE471E087ED95E069
:100770000E94542610920C0262EE71E085EC91E02A
:100780000E949E0E811108C06AE371E087ED95E03A
:100790000E94542610920C0280910C02882331F0A2
:1007A0000E94F301811102C010920C02E0900F022E
:1007B000F090100263E371E087ED95E00E9454260B
:1007C000B70187ED95E00E94792664E271E087ED3C
:1007D00095E00E947926E0900D02F0900E026CE206
:1007E00071E087ED95E00E945426B70187ED95E012
:1007F0000E94792664E271E087ED95E00E947926F7
:1008000062E089E995E00E94392360E171E087EDBB
:1008100095E00E94542661E089E995E00E94A320BA
:1008200089E995E00E94EA21F82E6DEF70E087EDEE
:1008300095E00E9454264AE050E06F2D87ED95E048
:100840000E94482764E071E087ED95E00E945426FD
:100850006CEE70E087ED95E00E94542640910D0209
:1008600050910E0260910F027091100289E995E09B
:100870000E94EE2081110DC066E371E087ED95E0E6
:100880000E94792664EF71E080E090E00E94D82712
:10089000E5CF67EE70E087ED95E00E94542689E988
:1008A00095E00E94E6217C0165ED70E087ED95E022
:1008B0000E945426B70187ED95E00E94792664EEE8
:1008C00070E087ED95E00E94542689E995E00E944A
:1008D000C0227C0161EC70E087ED95E00E94542617
:1008E000C7010E94A8016EEB70E087ED95E00E94C1
:1008F00054266CEA70E087ED95E00E94542689E961
:1009000095E00E940D2366E271E087ED95E00E947C
:10091000792663EA70E087ED95E00E94542688EC22
:10092000E82EF12C89E995E00E94DD22853081F0E6
:1009300066E371E087ED95E00E94792664EF71E04F
:1009400080E090E00E94D82731E0E31AF10851F7E7
:100950006EE970E087ED95E00E94542669E975E044
:10096000C8010E948F2161E970E087ED95E00E9447
:100970005426B80187ED95E00E94822663E271E07B
:1009800087ED95E00E9479260E942D050E94E402E1
:1009900066E870E087ED95E00E94542626960FB633
:1009A000F894DEBF0FBECDBFDF91CF911F910F91A5
:1009B000FF90EF9008950F9300E020E040E060E0AA
:1009C00080E392E00E94EB2520E04CE06DE081E1C5
:1009D00092E00E94340A84E190E00E94672990939B
:1009E000100280930F0284E190E00E9467299093A7
:1009F0000E0280930D0210920502109206021092D0
:100A0000090210920B0282E090E0A0E0B0E0809337
:100A1000E2019093E301A093E401B093E501109209
:100A2000F9011092C8011092C7018CE591E09093F2
:100A3000C6018093C5011092CA011092AB011092B9
:100A4000AA019093A9018093A8011092AD010F9182
:100A5000089581E192E00C94DB0984EA92E00C9421
:100A60005708CF93DF93CDB7DEB72B970FB6F89427
:100A7000DEBF0FBECDBF68E670E084EA92E00E9460
:100A80007B0860E084EA92E00E94180884EA92E021
:100A90000E94900847E050E068E670E084EA92E047
:100AA0000E946E0884EA92E00E94C8078F770E9435
:100AB0009605782F84EA92E07B870E94C8070E94FF
:100AC0009605682F84EA92E06A870E94C8070E9410
:100AD0009E05582F84EA92E059870E94C80784EA4D
:100AE00092E00E94C8070E949605482F84EA92E08F
:100AF00048870E94C8070E949605382F84EA92E032
:100B00003F830E94C8070E949605282F3F81488591
:100B100059856A857B8580E090E02B960FB6F89426
:100B2000DEBF0FBECDBFDF91CF910895982F929574
:100B30009F702AEF929F800D11240895982F96FFA1
:100B40000CC08F71282F22952F7036E0239F8019BB
:100B5000112495FF09C0845F089582958F7026E067
:100B6000829F90191124892F08951092A30281E089
:100B70008093A1021092A00261E082E10E949D2870
:100B800061E083E10E949D28E9EBF0E080818E7FA7
:100B9000808380818D7F808388E48093B80085E4A2
:100BA0008093BC000895413208F03FC09091A302A9
:100BB0009111FCCF91E09093A3022093A1022FEF1B
:100BC0002093360210927B02240F20937A02909396
:100BD000A2029091A202880F892B8093A202809199
:100BE000A002813041F41092A0028091A202809371
:100BF000BB0085EC01C085EE8093BC008091A30210
:100C00008130E1F380917B02841710F440917B02E4
:100C10002CE732E0FB01D9018A2F821B841718F4DC
:100C20008D918193F9CF842F089580E008950F93DB
:100C3000413208F046C09091A3029111FCCF92E09E
:100C40009093A3020093A1029FEF9093360210921B
:100C50007B0240937A02FB016CE772E0DB019A2F82
:100C6000961B941718F491919D93F9CF1092A202BC
:100C70009091A202880F892B8093A2028091A002FA
:100C8000813041F41092A0028091A2028093BB00B7
:100C900085EC01C085EE8093BC00222321F0809179
:100CA000A3028230E1F3809136028F3F61F08091A0
:100CB0003602803251F080913602803341F483E075
:100CC00007C081E005C080E003C082E001C084E08D
:100CD0000F910895613298F42091A302243089F491
:100CE00060935802FC018AE592E0DC012A2F281B60
:100CF000261718F421912D93F9CF80E0089581E013
:100D0000089582E0089585ED8093BC008091BC0039
:100D100084FDFCCF1092A302089585EC8093BC0063
:100D20001092A30208951F920F920FB60F921124F2
:100D30002F933F934F935F936F937F938F939F93E3
:100D4000AF93BF93EF93FF938091B900887F803674
:100D500009F49CC068F5883209F45BC090F48031D6
:100D600009F454C038F4882309F4F5C0883009F434
:100D70004DC0F5C0883109F44CC0803209F45DC023
:100D8000EEC0803409F468C048F4803309F455C0DB
:100D9000883309F0E4C080933602A8C0803509F496
:100DA0004FC0883509F45DC0883409F0D8C0D5C07B
:100DB000883909F4C6C0A8F4883709F467C038F444
:100DC000883609F463C0803709F460C0C8C0883829
:100DD00009F4B7C0803909F45FC0803809F0BFC09A
:100DE0005BC0803B09F485C038F4803A09F466C0E2
:100DF000883A09F47EC0B3C0803C09F4A6C0883CA0
:100E000009F4A3C0883B09F489C0A9C08091A2025B
:100E100010C090917B0280917A02981770F5E09152
:100E20007B0281E08E0F80937B02F0E0E458FD4F5F
:100E300080818093BB0085EC85C0809336028DC095
:100E4000E0917B0281E08E0F80937B028091BB005A
:100E5000F0E0E458FD4F808390917B0280917A020C
:100E60006DC0E0917B0281E08E0F80937B028091C8
:100E7000BB00F0E0E458FD4F80838091A102811116
:100E80006CC081E08093A00284EA60C083E080931C
:100E9000A30210923702CFCF80913702803208F040
:100EA00050C0E091370281E08E0F8093370280912D
:100EB000BB00F0E0E85CFD4F8083BDCF809137023E
:100EC000803230F4E0913702F0E0E85CFD4F1082B0
:100ED0000E9483066091370270E0E0919C02F091DD
:100EE0009D0288E392E00995109237020E948D06D8
:100EF00036C084E08093A3021092590210925802E7
:100F0000E0919E02F0919F02099580915802811113
:100F100005C081E08093580210925A02E091590274
:100F200081E08E0F80935902F0E0E65AFD4F8081F8
:100F30008093BB009091590280915802981708F451
:100F40007ACF85E88093BC000AC085EC8093BC0012
:100F50001092A30204C0109236020E948306FF91F1
:100F6000EF91BF91AF919F918F917F916F915F9121
:100F70004F913F912F910F900FBE0F901F9018959A
:100F80008091D40290E02091D502821B91090895AE
:100F90002091D5028091D402281750F4E22FF0E07E
:100FA000EA52FD4F808190E02F5F2093D502089593
:100FB0008FEF9FEF0895E091D5028091D402E8175A
:100FC00030F4F0E0EA52FD4F808190E008958FEF19
:100FD0009FEF08950895CF92DF92EF92FF920F93C3
:100FE0001F93CF93DF937C01CB018A012091B00244
:100FF000222389F0EB016B01C40ED51ECC15DD0553
:1010000069F06991D701ED91FC910190F081E02D9B
:10101000C7010995F3CF642F0E946A06C801DF91CA
:10102000CF911F910F91FF90EF90DF90CF90089597
:10103000CF93DF931F92CDB7DEB769832091B002C3
:101040002223D1F02091B102203240F021E030E0A3
:10105000FC013383228380E090E015C08091B202CE
:10106000E82FF0E0ED54FD4F998190838F5F8093DE
:10107000B2028093B10205C061E0CE0101960E94E8
:101080006A0681E090E00F90DF91CF910895FC0116
:101090001382128248EE53E060E070E0448355838F
:1010A000668377838CE391E0918380830895109227
:1010B000D5021092D4021092B2021092B1020C9496
:1010C000B505862F413208F040E266ED72E00E94DD
:1010D000D3051092D5028093D402089521E00C9498
:1010E000610881E08093B0026093D3021092B20253
:1010F0001092B10208950C9471080F93062F21E00D
:101100004091B10263EB72E08091D3020E94170616
:101110001092B2021092B1021092B0020F91089593
:1011200061E00C947D0884EA92E00C9447082091D9
:1011300038033091390328173907B9F49091F60232
:101140008091F702981789F0E091F602F0E0E850FC
:10115000FD4F80812091F60230E02F5F3F4F2F73CB
:1011600033272093F60290E008958FEF9FEF0895C4
:101170001F93CF93DF93DC015C968D919C915D97DB
:10118000009749F481E090E013969C938E93129718
:1011900080E090E03BC05196ED91FC9152975096C3
:1011A0002C915097322F30951FB75E964C915E97D9
:1011B00041FB772770F941FD6095F89440817723D2
:1011C00011F0422B01C043234083EC012197F1F73A
:1011D00048E0508160FF02C0522B01C0532350836E
:1011E000EC012197F1F76695415099F780817723BB
:1011F00011F0832301C0822B80831FBF5C968D91E9
:101200009C915D970197F1F781E090E0DF91CF919C
:101210001F91089520913803309139032817390719
:1012200081F49091F6028091F702981751F0E091C5
:10123000F602F0E0E850FD4F8081992787FD9095F8
:1012400008958FEF9FEF089520913803309139036F
:101250002817390771F48091F7022091F60290E087
:10126000805C9F4F821B910960E470E00E9411290D
:10127000089580E090E0089520913803309139037B
:101280002817390739F48FB7F8941092F7021092A3
:10129000F6028FBF0895E0913803F0913903E81703
:1012A000F90769F4A389B4899C918589809589237C
:1012B0008C93109239031092380381E0089580E0F6
:1012C00008951F920F920FB60F9211242F933F9300
:1012D0004F935F936F937F938F939F93AF93BF933E
:1012E000EF93FF93E0913803F0913903309709F4BD
:1012F00051C0868DA685B785958581FF04C08C91E8
:10130000892329F447C08C91892309F043C0A3891C
:10131000B4899C918589809589238C938689978946
:101320000197F1F7208D318DA685B785758558E039
:1013300040E0C9010197F1F7842F90E095958795DA
:10134000482F6C91672309F04068515091F7868DC2
:1013500081FD40958091F70290E001968F73992767
:101360002091F602281749F0A091F702B0E0A850AA
:10137000BD4F4C938093F70203C0868D8160868FAA
:10138000828D938D0197F1F7A389B4898C9195890A
:10139000892B8C93FF91EF91BF91AF919F918F918A
:1013A0007F916F915F914F913F912F910F900FBE61
:1013B0000F901F9018952CE431E0FC0131832083BD
:1013C0000C944B091F93CF93DF93EC01162F6E8D76
:1013D0006695617081E06827812F0E949D2861E0F9
:1013E000812F0E946428812F90E0FC01E256FD4F7E
:1013F000E491E88BFC01EE54FD4FE491F0E0EE0F38
:10140000FF1FE053FD4F859194919A8B898BDF915B
:10141000CF911F9108951F93CF93DF93EC01162F67
:1014200060E0812F0E9464288E8D81FD04C061E000
:10143000812F0E949D281C87812F90E0FC01E2569D
:10144000FD4FE491ED87FC01EE54FD4FE491F0E097
:10145000EE0FFF1FEA53FD4F859194919F878E8772
:10146000DF91CF911F910895FF920F931F93CF9318
:10147000DF93EC01F62E522F1B821A8208EE13E046
:1014800020E030E00C831D832E833F838CE491E0C9
:10149000998388831F8A1E8A198E188E1B8E1A8E36
:1014A0001D8E1C8E8E8D8E7F50FB81F98E8F642F4A
:1014B000CE010E94E2096F2DCE01DF91CF911F91E5
:1014C0000F91FF900C940B0ACF93CFB7F8948091B3
:1014D0003D03811127C0ECEBF2E08491E8EAF2E0F1
:1014E0009491E82FF0E0EE0FFF1FE652FD4FA5911B
:1014F000B4918C91892321F461E08AE00E949D28B7
:1015000061E08AE00E9464288CB580618CBD8CB556
:1015100080648CBD61E08DE00E94642861E08BE016
:101520000E94642880913D038F5F80933D03CFBF6D
:10153000CF9108959FB7F89420913C0380913A038E
:10154000213019F48DBB9FBF08958FBF089520915E
:101550003C03222399F03FB7F89420913C032130BB
:1015600059F42DB320933A034DB320913B032095BA
:1015700024232DBB3FBF02C030933A038CBD9DBDD9
:1015800008958EBD00000DB407FEFDCF8EB5089501
:101590008FEF0C94C10A61E0FC0184810E949D28B8
:1015A00080913E03882339F010923E0380913C03E2
:1015B00081110C949A0A0895CF93DF93EC018091E6
:1015C0003E03811109C081E080933E0380913F0377
:1015D000909140030E94A70A60E08C81DF91CF9137
:1015E0000C949D28CF93DF93EC018E81882389F0A2
:1015F0008F8198859C012F5F3F4F38872F838230E2
:10160000924018F40E94C80AF3CFCE010E94CB0A80
:101610001E82DF91CF910895673028F026E1FC010A
:10162000258380E00895623081F030F4662359F01C
:101630006130B1F480E515C0643059F040F0653098
:1016400079F482E50EC080E505C081E503C081E53F
:1016500008C082E580933F0381E0809340030895B2
:1016600083E580933F031092400381E008950F9338
:101670001F93CF93DF93EB010E94A9278B010E9458
:10168000C80A8F3F49F00E94A927601B710B6C1795
:101690007D07A8F380E001C081E0DF91CF911F9129
:1016A0000F910895CF92DF92FF920F931F93CF93E4
:1016B000DF9300D000D0CDB7DEB76C01F62E2983C2
:1016C0003A834B835C830E94F20AC6010E94DC0AC3
:1016D0006CE271E0C6010E94370B8F2D80640E947E
:1016E000C10A08E110E05C814B813A812981DA016D
:1016F000C901002E04C0B695A795979587950A94C1
:10170000D2F729833A834B835C830E94C10A085035
:10171000110929813A814B815C81083F8FEF1807BD
:1017200031F7FF2029F0E8E0FE1621F08FEF03C02B
:1017300085E901C087E80E94C10A10E00E94C80A3A
:10174000F601828787FF04C01F3F11F01F5FF6CFAD
:101750000F900F900F900F90DF91CF911F910F91ED
:10176000FF90DF90CF900895BF92CF92DF92EF92DB
:10177000FF920F931F93CF93DF93EC01B62E1B863E
:1017800019861E821D824C830E94A9278B0161E06D
:101790008C810E94642861E08C810E949D280E94B7
:1017A000640A82E580933F031092400380913F03D7
:1017B000909140030E94A70A2AE0F22E8FEF0E9428
:1017C000C10AFA94D9F780913C0381110E949A0AC8
:1017D000CE010E94DC0A20E030E0A90160E0CE01E9
:1017E0000E94520BF82E8A8781E0F81649F00E9479
:1017F000A927601B710B613D774068F381E04BC006
:101800002AEA31E040E050E068E0CE010E94520B4D
:1018100082FF02C0FB860DC094E0F92E0E94C80A28
:101820008A87FA94D9F78A3A11F082E034C082E0CC
:101830008B878B85823031F4C12CD12CE12C80E454
:10184000F82E03C0C12CD12C760120E030E0A90194
:1018500067E3CE010E94520BA701960169E2CE0117
:101860000E94520B8A87882349F00E94A927601B97
:10187000710B613D774048F388E00DC08B85823065
:1018800031F520E030E0A9016AE3CE010E94520B5D
:10189000882381F086E08D83CE010E94CB0A80E010
:1018A000DF91CF911F910F91FF90EF90DF90CF903C
:1018B000BF9008950E94C80A807C803C11F483E0A8
:1018C0008B870E94C80A0E94C80A0E94C80ACE01DB
:1018D0000E94CB0A6B2DCE01DF91CF911F910F910A
:1018E000FF90EF90DF90CF90BF900C940C0B0F9374
:1018F0001F93CF93DF93EC010E94A9278B010E94D5
:10190000C80A8A878F3F49F40E94A927601B710B80
:101910006D327140A0F38FE003C08E3F39F08DE04F
:101920008D83CE010E94CB0A80E001C081E0DF916F
:10193000CF911F910F910895CF92DF92EF92FF9276
:101940000F931F93CF93DF93EC01690101151105EC
:1019500009F462C0C801820F931F8130924008F0E1
:101960005DC08E81882371F088819981AA81BB81B5
:10197000481759076A077B0729F48F819885C8168D
:10198000D90610F5488359836A837B838B8583301E
:1019900039F039E0440F551F661F771F3A95D1F78C
:1019A0009A01AB0161E1CE010E94520B882319F02C
:1019B00083E08D8333C0CE010E94770C882371F1C0
:1019C00018861F8281E08E838F8198858C159D05F6
:1019D00040F40E94C80A8F819885019698878F836A
:1019E000F3CF6701E00EF11ECE14DF0431F00E9448
:1019F000C80AF60181936F01F7CF8F819885800F18
:101A0000911F98878F832985222319F08115924091
:101A100018F0CE010E94F20A81E004C0CE010E94BB
:101A2000CB0A80E0DF91CF911F910F91FF90EF9053
:101A3000DF90CF900895EF92FF920F931F9379015B
:101A400000E012E020E030E00E949C0C1F910F911A
:101A5000FF90EF900895CF92DF92EF92FF920F9355
:101A60001F93CF93DF9300D0CDB7DEB78C01862FC5
:101A700049835A830E94C10A4981C42E5A81D52EB6
:101A8000E12CF12CF60181916F010E94C10AFFEF58
:101A9000EF1AFF0AE11482E0F806A1F78FEF0E9427
:101AA000C10A8FEF0E94C10A0E94C80AF80182870A
:101AB0008F71853039F081E18583C8010E94CB0A9E
:101AC00080E001C081E00F900F90DF91CF911F91D6
:101AD0000F91FF90EF90DF90CF9008950F931F9399
:101AE000CF93DF93EC018901411551056105710523
:101AF00011F482E132C08B85833039F089E0440FE4
:101B0000551F661F771F8A95D1F79A01AB0168E1CF
:101B1000CE010E94520B882311F084E01EC0A80160
:101B20006EEFCE010E942B0D8823C1F068E572E0B4
:101B3000CE010E94370B811102C085E10EC020E06A
:101B400030E0A9016DE0CE010E94520B811104C06A
:101B50000E94C80A882339F084E18D83CE010E9457
:101B6000CB0A80E004C0CE010E94CB0A81E0DF9165
:101B7000CF911F910F91089580E580933F031092BC
:101B800040030895CF93DF93EC019C012A5F3F4F00
:101B900041E050E060E070E08B8D9C8D0E94191751
:101BA0008823A1F04F89588D698D7A8D452B462B5E
:101BB000472B71F44E815F81688579854F8B588FF3
:101BC000698F7A8F8C8180688C8302C080E001C02D
:101BD00081E0DF91CF910895CF92DF92EF92FF9253
:101BE0001F93CF93DF93EC010E94C20D811102C0BD
:101BF00080E04BC0EB8DFC8DCE80DF80E884F984E3
:101C000082E0C81AD108E108F108058404C0CC0CB0
:101C1000DD1CEE1CFF1C0A94D2F7468557856089AF
:101C20007189C40ED51EE61EF71E148181E0C81A04
:101C3000D108E108F108112361F0C701B601610F75
:101C4000711D811D911D0E946315882389F2115019
:101C5000F2CFEB8DFC8DC12C82E0D82EE12CF12C43
:101C6000058404C0CC0CDD1CEE1CFF1C0A94D2F7CA
:101C70004B895C896D897E894C0D5D1D6E1D7F1DB4
:101C80004B8B5C8B6D8B7E8B81E0DF91CF911F91B5
:101C9000FF90EF90DF90CF900895CF93DF93EC010A
:101CA000462F6E857F85888999890E94281588230B
:101CB00041F08A8920E2829FC0011124865B9C4FFB
:101CC00002C080E090E0DF91CF910895282FFB01C2
:101CD0008BE030E231938150E9F7A22FB92F20E059
:101CE00037E09D91992319F19E3219F0E0EBF1E074
:101CF00008C03A3011F128E03AE0F3CF31964917A5
:101D0000E1F044914111FACF3217B8F04FED490F8D
:101D10004E3598F441E0420FFB01E20FF11D2FE92F
:101D2000290F2A3108F490529083242FDACF81E0D2
:101D3000FB019081903209F480E008950F931F9386
:101D4000CF93DF93EC018B018D81882311F080E02C
:101D500040C0FB0187898031B1F482E08D831F8A06
:101D6000188E198E1A8E408D518D60E070E095E0CE
:101D7000440F551F661F771F9A95D1F74B8B5C8BCD
:101D80006D8B7E8B15C0803211F783E08D83FB0154
:101D9000428D538D648D758D4F8B588F698F7A8FDF
:101DA0009E012D5E3F4FC8010E940D16882379F2D7
:101DB0001C8F0B8F81E08C831E821F8218861986F0
:101DC0001A861B861C861D861E861F86188A198AFF
:101DD0001A8ADF91CF911F910F9108952F923F9210
:101DE0004F925F926F927F928F929F92AF92BF922B
:101DF000CF92DF92EF92FF920F931F93CF93DF93D7
:101E0000EC016B015A018D81811103C08FEF9FEFAF
:101E1000DAC08C8180FFFACF4B895C896D897E891D
:101E20008A859B85AC85BD852501612C712C8A0135
:101E30009B01081B190B2A0B3B0B041515052605E6
:101E4000370518F45A01A81AB90A25011E0126E01F
:101E5000220E311C4114510409F47BC04A855B8574
:101E60006C857D854A0181E09822ED818A019B0184
:101E7000F9E03695279517950795FA95D1F78B8D4B
:101E80009C8DE23051F4FC01628D738D848D958DB3
:101E9000600F711F821F931F3EC0FC0174807A94F3
:101EA000702281149104C9F4711017C0452B462B80
:101EB000472B49F48F89988DA98DBA8D8E839F8386
:101EC000A887B9870AC04E815F81688579859101AD
:101ED0000E948915882309F499CFEB8DFC8D6E81C2
:101EE0007F818885998562507109810991090584EE
:101EF00004C0660F771F881F991F0A94D2F70685C2
:101F0000178520893189600F711F821F931F670D0C
:101F1000711D811D911D20E032E02819390932011F
:101F20002415350508F439012C8126FD04C06114FF
:101F3000F2E07F06A1F500910601109107012091C2
:101F4000080130910901601771078207930719F49E
:101F500026C0C50138C0760183019401AB01BC01E4
:101F600080914803909149030E949C0C882309F4B6
:101F70004DCFC60CD71C04C0E81BF90BCE0EDF1EDC
:101F80008A859B85AC85BD85860D971DA11DB11DDC
:101F90008A879B87AC87BD87461857085BCF40E090
:101FA0000E942815882309F431CFC401865B9C4F19
:101FB000D6019C01260D371DFC01E217F307E1F263
:101FC00041914D93FACFDF91CF911F910F91FF90E7
:101FD000EF90DF90CF90BF90AF909F908F907F90C9
:101FE0006F905F904F903F902F900895FF920F93C6
:101FF0001F93CF93DF931F92CDB7DEB78C01FC0107
:102000008581823018F480E090E034C0F801428588
:10201000538564857585A5E07695679557954795B1
:10202000AA95D1F7F42FFF70FF2E41E050E0BE01DA
:102030006F5F7F4FC8010E94EE0E019719F429814E
:1020400030E002C02FEF3FEF2F3F3F4FE1F2F801AA
:102050004285538564857585415E5F4F6F4F7F4F25
:102060004287538764877587F0E2FF9EC001112481
:10207000865B9C4F0F90DF91CF911F910F91FF9046
:1020800008954F925F926F927F92AF92BF92CF92DC
:10209000DF92EF92FF920F931F93CF93DF93EC01A8
:1020A0006A017B012D81222309F457C08B899C8909
:1020B000AD89BE8984179507A607B70708F44DC0F8
:1020C0004EC08A859B85AC85BD85EB8DFC8DE585F5
:1020D000F0E03996AC01BD01415051096109710927
:1020E0000E2E04C076956795579547950A94D2F7BA
:1020F00097018601015011092109310904C0369563
:10210000279517950795EA95D2F70417150726071F
:102110003707B0F58F89988DA98DBA8D8E839F83EF
:10212000A887B987280139015E0186E0A80EB11C95
:10213000411451046104710461F14E815F8168852D
:10214000798595018B8D9C8D0E94891591E0491AA6
:102150005108610871088111EBCF80E01FC0223067
:10216000C1F0C114D104E104F10409F0AACF1E8228
:102170001F82188619861A861B861C861D860DC02E
:10218000892B8A2B8B2B31F2041B150B260B370B5B
:10219000C9CFCA86DB86EC86FD8681E0DF91CF91D0
:1021A0001F910F91FF90EF90DF90CF90BF90AF9075
:1021B0007F906F905F904F9008950F931F93CF93F0
:1021C000DF93EC018D818823C9F18C8187FF30C0BA
:1021D00061E0CE010E944D0E8C01009779F18D8156
:1021E000823048F44B895C896D897E89F801448F7F
:1021F000558F668F778F4F89588D698D7A8DF8014D
:10220000538F428F758B648BE0914103F0914203B1
:10221000309759F0B8016A5E7F4FC801489609951A
:10222000F801808D918D938B828B8C818F778C833D
:10223000DF91CF911F910F910C94ED1480E0DF910D
:10224000CF911F910F910895CF93DF93EC010E94DE
:10225000DD10882319F01D8281E001C080E0DF914C
:10226000CF9108954F925F926F927F92AF92BF92FB
:10227000CF92DF92EF92FF920F931F93CF93DF9352
:1022800000D000D0CDB7DEB75C016A017B01FC0154
:1022900085818130F1F4848181FF1BC0F501838940
:1022A0009489A589B68984179507A607B70788F08A
:1022B000892B8A2B8B2B09F479C0F5014284538436
:1022C00064847584B701A601C5010E944110811183
:1022D00002C080E06CC0F501838D948DC114D104DF
:1022E000E104F10471F44789508D618D728D0E9473
:1022F0002E18882371F3F501178A108E118E128E15
:102300003AC0F50146815781608571859E012F5F36
:102310003F4F0E9489158823E1F249815A816B81E0
:102320007C81F501838D948DFC012789203129F46E
:1023300008EF1FEF20E030E004C008EF1FEF2FEFA1
:102340003FE04017510762077307A8F40E942E1858
:10235000882309F4BECFF5014681578160857185D8
:102360000FEF1FEF2FEF3FE0838D948D0E947816C3
:10237000882309F4AECFF501C38AD48AE58AF68AA8
:10238000848180688483C5010E94DD10882309F45C
:10239000A0CFB701A6014C145D046E047F0410F4B5
:1023A000B301A201C5010E94411001C081E00F905C
:1023B0000F900F900F90DF91CF911F910F91FF9091
:1023C000EF90DF90CF90BF90AF907F906F905F9035
:1023D0004F900895FF920F931F93CF93DF93EC01DB
:1023E000F42E80E2689FF0011124E65BFC4F8385A8
:1023F000817129F0842F827411F080E053C06A8BC0
:102400008091060190910701A0910801B091090106
:102410008E879F87A88BB98B4489558960E070E0CF
:10242000BA0155274427028D138D20E030E0402B60
:10243000512B622B732B4F8B588F698F7A8F83852B
:10244000887151F4048D158D268D378D0B8B1C8B67
:102450002D8B3E8B81E00CC0803179F69E012D5E84
:102460003F4F8B8D9C8D0E940D16882331F284E0A6
:102470008D838F2D8F708C831E821F821886198604
:102480001A861B861C861D86F6FE0BC040E050E0B7
:10249000BA01CE01DF91CF911F910F91FF900C9463
:1024A000321181E0DF91CF911F910F91FF9008953C
:1024B000AF92BF92CF92DF92EF92FF920F931F9352
:1024C000CF93DF93CDB7DEB72B970FB6F894DEBF6F
:1024D0000FBECDBF7C016B01CA01B22EF701258171
:1024E0002111B9C0BE016F5F7F4F0E94660E882325
:1024F00009F4B1C0F601838D948DF701948F838F19
:10250000F6011682178210861186128613861486AB
:102510001586A12CF60102851385248535858389CE
:102520009489A589B689081719072A073B07E8F592
:1025300045E036952795179507954A95D1F70F7081
:10254000C6010E94F60F009709F485C0FC012081A6
:10255000222311F0253EB9F4A1100EC0F701028B21
:1025600040910601509107016091080170910901A5
:1025700046875787608B718BFC018081AA24A394C6
:102580008111C8CF12C04BE050E0BC01CE010196D2
:102590000E94B02A892B09F0BDCF8B2D8073803328
:1025A00009F459C04B2D602F52C08B2D827182319E
:1025B00009F051C0AA2041F061E0C7010E944D0E10
:1025C0008C01009779F447C0F6018581823009F4C7
:1025D00042C0C6010E94EC0D8823E9F1F701128A7E
:1025E0000AE413E080E2F80111928A95E9F78BE0A2
:1025F000FE013196D80101900D928A95E1F7E091A4
:102600004103F0914203309739F0B801625F7F4F88
:10261000C8014096099509C081E298E2F801918BC2
:10262000808B80E098E097878687F8018089918980
:10263000938B828B918F808F86859785978B868BE6
:102640000E94ED14882339F04B2DF7016289C701F0
:102650000E94EA1101C080E02B960FB6F894DEBF0D
:102660000FBECDBFDF91CF911F910F91FF90EF90E3
:10267000DF90CF90BF90AF9008952F923F924F92EE
:102680005F926F927F928F929F92AF92BF92CF9202
:10269000DF92EF92FF920F931F93CF93DF9300D0BF
:1026A00000D01F92CDB7DEB78C017B013A01DC016F
:1026B00015968C9115978130C9F414968C9181FFF1
:1026C00015C082FF1BC0F80143895489658976894A
:1026D00082859385A485B58584179507A607B707D6
:1026E00069F0C8010E944110811108C081E090E0AA
:1026F000F8019383828380E090E046C1630180C04B
:10270000D8015B968D919C915C97FC01F481F1500E
:10271000B501A40129E076956795579547952A95C7
:10272000D1F7F423FD8321E09222FF2309F474C042
:1027300080E092E08819990956018C159D0508F4EE
:102740005C01D8015B96ED91FC915C9716962D90FB
:102750003D904D905C901997B2E02B1A31084108DA
:102760005108058404C0220C331C441C551C0A94D7
:10277000D2F786859785A089B189280E391E4A1E11
:102780005B1EED812E0E311C411C511CA114F2E088
:10279000BF0609F088C08091060190910701A091C1
:1027A0000801B091090182159305A405B50559F4F6
:1027B0008FEF9FEFDC018093060190930701A093B8
:1027C0000801B09309019701B201A101809148036A
:1027D000909149030E946E0D882309F487CF9EEFE4
:1027E000F91ACA18DB08F80182859385A485B58596
:1027F0008A0D9B1DA11DB11D82879387A487B58774
:10280000D8011A968D909D90AD90BC901D97C114E3
:10281000D10409F075CF8AC08114910409F088CFE2
:1028200016964D915D916D917C91199741155105C9
:102830006105710559F457968D919D910D90BC914C
:10284000A02D0097A105B10541F521C09E012F5F84
:102850003F4F0E948915882309F44ECF89819A81C0
:10286000AB81BC81F801238D348DF901278920319A
:1028700029F448EF5FEF60E070E004C048EF5FEFDD
:102880006FEF7FE084179507A607B70730F0C80100
:102890000E94C20D81114CCF29CFF8018683978306
:1028A000A087B18745CF8114910429F5D8011A96E4
:1028B0004D915D916D917C911D9753968D919D9158
:1028C0000D90BC91A02D481759076A077B0798F017
:1028D0000E94ED14882309F409CF2092060130925A
:1028E00007014092080150920901809147038160DD
:1028F0008093470308C041E0C201B1010E9428153E
:10290000882309F4F3CEC401865B9C4FD7019C0158
:102910002A0D3B1DFC01E217F30719F04D9141937D
:10292000FACFE81BF90BEE0EFF1E5BCF53968D918D
:102930009D910D90BC91A02DF801248188159905D9
:10294000AA05BB0538F4838A948AA58AB68A2068CA
:1029500024830CC08091410390914203892B31F074
:102960006114710419F02068F8012483D8011496C9
:102970008C9183FD02C0C30107C0C8010E94DD1015
:10298000882309F4B3CEF7CF0F900F900F900F90DC
:102990000F90DF91CF911F910F91FF90EF90DF90FB
:1029A000CF90BF90AF909F908F907F906F905F90EF
:1029B0004F903F902F900895CF93DF931F92CDB704
:1029C000DEB7698341E050E0BE016F5F7F4F0E9438
:1029D0003D130F90DF91CF91089580914703882395
:1029E00099F14091060150910701609108017091A1
:1029F00009012AE433E080914803909149030E9441
:102A00006E0D882319F14091430350914403609166
:102A1000450370914603411551056105710591F01B
:102A20002AE433E080914803909149030E946E0D9F
:102A3000882361F0109243031092440310924503DF
:102A4000109246031092470381E0089580E00895B4
:102A5000CF92DF92EF92FF92CF936B017C01C42F54
:102A60008091060190910701A0910801B0910901A0
:102A70008C159D05AE05BF05D1F00E94ED148111A6
:102A800002C080E01AC02AE433E0B701A6018091B9
:102A90004803909149030E941B0D882391F3C09233
:102AA0000601D0920701E0920801F092090180919D
:102AB00047038C2B8093470381E0CF91FF90EF90E9
:102AC000DF90CF900895CF92DF92EF92FF926B014B
:102AD0007C010E94ED148823B1F0EAE4F3E0119246
:102AE00085E0EA34F807D9F7C0920601D0920701D1
:102AF000E0920801F0920901809147038160809380
:102B0000470381E001C080E0FF90EF90DF90CF901D
:102B100008958F929F92AF92BF92CF92DF92EF92E1
:102B2000FF920F931F93CF93DF938C016A017B0178
:102B3000E901FC0181859285A385B4850196A11DDB
:102B4000B11D84179507A607B70710F480E058C099
:102B5000F80143895489658976898789803129F408
:102B6000BB27AF2D9E2D8D2D09C0D701C60127E0B3
:102B7000B695A795979587952A95D1F74C015D0154
:102B8000840E951EA61EB71EC501B40180900601D5
:102B900090900701A0900801B0900901681579058F
:102BA0008A059B0589F4F8018789803199F4DD2431
:102BB000EE24FF24F601EE0FFF1FE65BFC4F808141
:102BC0009181A0E0B0E017C040E00E94281581117B
:102BD000EACFBCCFE894C7F8DD24EE24FF24F60149
:102BE000EE0FFF1FEE0FFF1FE65BFC4F8081918110
:102BF000A281B381BF7088839983AA83BB8381E05C
:102C0000DF91CF911F910F91FF90EF90DF90CF90C8
:102C1000BF90AF909F908F9008954F925F926F9268
:102C20007F92AF92BF92CF92DF92EF92FF920F937B
:102C30001F93CF93DF9300D000D0CDB7DEB78C01C8
:102C400049835A836B837C835901C12CD12C760133
:102C5000412C42E0542E612C712C49815A816B81A8
:102C60007C819E012F5F3F4FC8010E9489158823F8
:102C700059F1D301C201F801058404C0880F991FDE
:102C8000AA1FBB1F0A94D2F7C80ED91EEA1EFB1E4C
:102C900049815A816B817C818789803129F488EF51
:102CA0009FEFA0E0B0E004C088EF9FEFAFEFBFE080
:102CB000481759076A077B0780F2F501C082D18265
:102CC000E282F38281E001C080E00F900F900F90CC
:102CD0000F90DF91CF911F910F91FF90EF90DF90B8
:102CE000CF90BF90AF907F906F905F904F9008957E
:102CF0004F925F926F927F928F929F92AF92BF920C
:102D0000CF92DF92EF92FF920F931F93CF93DF93B7
:102D1000EC016A017B01280139014230510561054E
:102D2000710508F474C049855A856B857C854F5FB1
:102D30005F4F6F4F7F4F4C155D056E057F0508F4A3
:102D400066C08B889C88AD88BE888F89803129F4C5
:102D500077276F2D5E2D4D2D09C0B701A601E7E045
:102D60007695679557954795EA95D1F7840E951E08
:102D7000A61EB71E409106015091070160910801FF
:102D80007091090184169506A606B70671F48F891D
:102D9000803199F4DD24EE24FF24F601EE0FFF1FAD
:102DA000E65BFC4F5182408218C040E0C501B4018F
:102DB0000E9428158111EBCF2AC0E894C7F8DD24C2
:102DC000EE24FF24F601EE0FFF1FEE0FFF1FE65B60
:102DD000FC4F4082518262827382809147038160FE
:102DE000809347038A89823080F08D819E81AF81F4
:102DF000B885880D991DAA1DBB1D80934303909330
:102E00004403A0934503B093460381E001C080E0F2
:102E1000DF91CF911F910F91FF90EF90DF90CF90B6
:102E2000BF90AF909F908F907F906F905F904F90EA
:102E300008952F923F924F925F926F927F929F924E
:102E4000AF92BF92CF92DF92EF92FF920F931F93B8
:102E5000CF93DF93CDB7DEB760970FB6F894DEBFA0
:102E60000FBECDBF5C014D875E876F87788B1901E0
:102E7000D9014D905D906D907C9041145104610496
:102E8000710431F0BFEF4B1A5B0A6B0A7B0A10C06A
:102E9000FC014080518062807380992493940D8559
:102EA0001E852F853889013011052105310509F06E
:102EB000912CD50119962D913D914D915C911C97C6
:102EC0002F5F3F4F4F4F5F4F29873A874B875C8774
:102ED000730162011D821E821F821886F5018185A1
:102EE0009285A385B4850D811E812F8138850817B1
:102EF00019072A073B0708F056C029853A854B85F4
:102F00005C852C153D054E055F0550F4A2E0CA2EE8
:102F1000D12CE12CF12CB2E04B2E512C612C712CD8
:102F20009E012F5F3F4FB701A601C5010E94891581
:102F30008823C9F149815A816B817C81D701C601FF
:102F40000196A11DB11D452B462B472B19F02C01D5
:102F50003D010FC0AC01BD0144195509660977094F
:102F60000D851E852F853889401751076207730725
:102F700079F02D813E814F8158852F5F3F4F4F4F14
:102F80005F4F2D833E834F8358876C017D01A6CF11
:102F90000FEF1FEF2FEF3FE0B701A601C5010E9421
:102FA0007816811118C080E041C0D701C601019791
:102FB000A109B1098D839E83AF83B88797018601EC
:102FC000AC01BD01C5010E947816882361F3CD8054
:102FD000DE80EF80F8844C145D046E047F0428F3D7
:102FE000D1014D915D916D917C9141155105610526
:102FF000710599F4F10140825182628273829920B5
:10300000A1F0FFEF4F1A5F0A6F0A7F0AD5014D92B8
:103010005D926D927C92139708C093018201C50165
:103020000E9478168111E6CFBECF81E060960FB680
:10303000F894DEBF0FBECDBFDF91CF911F910F91EE
:10304000FF90EF90DF90CF90BF90AF909F907F90D8
:103050006F905F904F903F902F900895AF92BF92E6
:10306000CF92DF92EF92FF920F931F93CF93DF9354
:1030700000D000D0CDB7DEB75C016A017B0182E0F1
:1030800090E0A0E0B0E0F50180839183A283B38358
:103090009E012F5F3F4FB701A601C5010E94891510
:1030A000882311F100E010E09801B701A601C501E5
:1030B0000E9478168823C1F0C980DA80EB80FC80FA
:1030C000F5018789803129F488EF9FEFA0E0B0E017
:1030D00004C088EF9FEFAFEFBFE0C816D906EA063D
:1030E000FB06B0F281E001C080E00F900F900F90DE
:1030F0000F90DF91CF911F910F91FF90EF90DF9094
:10310000CF90BF90AF9008958F929F92AF92BF9251
:10311000CF92DF92EF92FF920F931F93CF93DF93A3
:10312000EC01142F7093490360934803442341F149
:10313000453010F080E0EFC040E060E070E0CB018F
:103140000E9428158823B1F320E1129FF001112479
:10315000E850FB4F80818F7769F784859585A68538
:10316000B78584369105A105B10520F3C084D184CB
:10317000E284F384C114D104E104F10421F4DACF30
:10318000C12CD12C760140E0C701B6010E94281560
:10319000882381F2809155039091560381159240C6
:1031A00049F630915A03332329F2809158039091C4
:1031B0005903892B09F4BECF20915703222309F428
:1031C000B9CF3A8B2C831D8630E041E050E06D850D
:1031D000062FCA01062E02C0880F991F0A94E2F733
:1031E0002817390731F081E0860F8D87683078F332
:1031F000A1CF20916003309161032115310519F0B1
:1032000040E050E008C020916E0330916F03409180
:103210007003509171032D833E834F8358878091B3
:1032200058039091590346015701880E991EA11C1D
:10323000B11C8B8A9C8AAD8ABE8AE0915B03F091B7
:103240005C03F98FE88FA0915A03B0E00E945C29DB
:10325000680D791D8A1D9B1D6A8F7B8F8C8F9D8FBA
:1032600015E0EE0FFF1F1A95E1F7E150FE4FEF2F2B
:10327000FF27E695DC01CB018E0F9F1FA11DB11D1D
:103280008E879F87A88BB98B80905D0390905E039B
:103290008114910419F0A12CB12C08C080906A030C
:1032A00090906B03A0906C03B0906D03A701960102
:1032B000281B390B4A0B5B0BDA01C901880D991DDC
:1032C000AA1DBB1D04C0B695A795979587950A952D
:1032D000D2F789879A87AB87BC87853F3FE0930702
:1032E000A105B10510F48CE014C0853F9F4FA105E6
:1032F000B10510F480E10DC08091760390917703C1
:10330000A0917803B09179038A8F9B8FAC8FBD8F8A
:1033100080E28F8B81E0DF91CF911F910F91FF9021
:10332000EF90DF90CF90BF90AF909F908F900895D7
:1033300010924F05109250051092530510925505AA
:1033400082E090E0A0E0B0E08093560590935705AE
:10335000A0935805B093590510926D05109277050A
:10336000109276058CE591E0909375058093740535
:10337000109279050895CF92DF92EF92FF920F930A
:103380001F93CF93DF93CDB7DEB7A0970FB6F89416
:10339000DEBF0FBECDBF7C018B0120E030E080E0BE
:1033A00069019FEFC91AD90AD7011296ED91FC91D4
:1033B0001397E20FF31FE491482F50E0E1111CC076
:1033C0008823D1F0D801ED91FC910280F381E02DAA
:1033D000BE016F5F7F4FC8010995A0960FB6F894A4
:1033E000DEBF0FBECDBFDF91CF911F910F91FF9038
:1033F000EF90DF90CF9008958F5FA1E0B0E0AC0F29
:10340000BD1FA40FB51FEC93803210F49601C8CFF6
:10341000D801ED91FC910280F381E02D40E250E073
:10342000BE016F5F7F4FC801099580E0EFCF24E6B2
:1034300031E0FC0131832083738362830895CF934D
:10344000DF93EC01CB01DB01ED91FC910190F08168
:10345000E02DBE010995CE01DF91CF910895EF9245
:10346000FF920F931F93CF93DF93EC018E819F8187
:10347000892BF1F0E12CF12C00E010E0288530E000
:103480008E819F81021713077CF4FC01EE0DFF1D56
:1034900081819281009711F00E94FF290F5F1F4FD9
:1034A0008BE0E80EF11CEACF0E94FF291F821E82EA
:1034B0001886DF91CF911F910F91FF90EF900895A3
:1034C0008F929F92AF92BF92CF92DF92EF92FF9234
:1034D0000F931F93CF93DF936C015B01611571050F
:1034E000E1F0FC018084912CE12CF12C00E010E053
:1034F0000815190594F4F601C681D781CE0DDF1D9C
:1035000069817A81C5010E94C42AFBE0EF0EF11C9B
:10351000892B31F00F5F1F4FEBCF80E090E001C0AF
:10352000CE01DF91CF911F910F91FF90EF90DF902F
:10353000CF90BF90AF909F908F900895CF92DF92E1
:10354000EF92FF921F93CF93DF93EC01162F8D859F
:10355000662321F181115DC03091AD052091AE054A
:1035600080913C03882399F09FB7F89480913C03A5
:10357000813059F48DB380933A034DB380913B036E
:10358000809584238DBB9FBF02C090933A033CBDBE
:103590002DBD60E08AE00E949D283BC08823C9F1D0
:1035A00061E08AE00E949D2887E00E94D328892B51
:1035B00001F50E94A9276B017C0184E6C80ED11C8D
:1035C000E11CF11C87E00E94D328892B39F40E946A
:1035D000A9276C157D058E059F05A0F387E00E9445
:1035E000D328892B31F464E572E087ED95E00E94E1
:1035F000542680913C03882361F09FB7F894209172
:103600003C0380913A03213019F48DBB9FBF01C068
:103610008FBF1D87DF91CF911F91FF90EF90DF90BB
:10362000CF900895CF92DF92EF92FF92CF93DF93E6
:10363000EB0187E00E94D328892BE1F00E94A927A3
:103640006B017C01CC0EDD1EE11CF11C87E00E94A9
:10365000D328892B39F00E94A9276C157D058E058A
:103660009F05A0F387E00E94D32821E0892B19F061
:1036700020E001C021E0822FDF91CF91FF90EF90F9
:10368000DF90CF9008951F93CF93DF93EC01162F17
:1036900064E670E00E94121B212F30E03C872B87EC
:1036A0003A87298761E0CE010E949E1A81E00E943C
:1036B000C10A82E00E94C10A80E00E94C10A812FF3
:1036C0000E94C10A80E00E94C10A60E0CE01DF9141
:1036D000CF911F910C949E1ACF92DF92EF92FF929E
:1036E000CF93DF93EC0164E670E00E94121B61E06F
:1036F000CE010E949E1ACB84DC84E12CF12C8CE05C
:10370000CC0CDD1CEE1CFF1C8A95D1F789859A85AF
:10371000A0E0B0E0C82AD92AEA2AFB2A81E00E9468
:10372000C10A83E00E94C10A8C2D0E94C10A8D2D1E
:103730000E94C10A8E2D0E94C10A60E0CE010E9443
:103740009E1A64E670E0CE010E94121B61E0CE0179
:103750000E949E1A84E00E94C10A80E00E94C10A71
:10376000F82E80E00E94C10A80E00E94C10A80E039
:103770000E94C10A60E0CE010E949E1A81E0F11011
:1037800001C080E0DF91CF91FF90EF90DF90CF906C
:103790000895BF92CF92DF92EF92FF920F931F9303
:1037A000CF93DF93EC01F62EE72EC42E68E873E189
:1037B0000E94121BD82E811113C06BEB75E087EDB0
:1037C00095E00E941F1A67EB75E00E941F1A6FEACE
:1037D00075E00E941F1A64E271E00E94792635C0EC
:1037E00061E0CE010E949E1A82E00E94C10A8FEF22
:1037F0000E94C10ABF2C0F2D1E2D9DEFE92E9FE0C8
:10380000F92E802F8B198C15E0F4F801D8018D91D9
:103810008D0129853A85280F311DC901B7010E9404
:10382000FD28BC019A8789878B859C85860F971F09
:10383000B7010E94FD289C878B8780810E94C10A66
:10384000E0CF60E0CE010E949E1A8D2DDF91CF91D6
:103850001F910F91FF90EF90DF90CF90BF90089550
:10386000BF92CF92DF92EF92FF920F931F93CF936D
:10387000DF938C01E62EC72ED42E68E873E10E94F8
:10388000121BF82E811113C06BEB75E087ED95E0EC
:103890000E941F1A63EB75E00E941F1A6FEA75E021
:1038A0000E941F1A64E271E00E9479261AC061E04A
:1038B000C8010E949E1A83E00E94C10A80E00E9413
:1038C000C10ABE2CCE2DDC2D8C2F8B198D1528F422
:1038D00080E00E94C10A8993F7CF60E0C8010E948E
:1038E0009E1A8F2DDF91CF911F910F91FF90EF9036
:1038F000DF90CF90BF900895DF92EF92FF920F93E9
:103900001F93CF93DF93EC01E62E68E873E10E94EA
:10391000121BD82E811113C06BEB75E087ED95E07B
:103920000E941F1A63EB75E00E941F1A6FEA75E090
:103930000E941F1A64E271E00E9479261AC061E0B9
:10394000CE010E949E1A83E00E94C10A80E00E947C
:10395000C10A00E010E0F12C0E151F0534F480E0E0
:103960000E94C10A0F5F1F4FF7CF60E0CE010E9497
:103970009E1A8D2DDF91CF911F910F91FF90EF90A7
:10398000DF90089542E00C94301C9F92AF92BF925A
:10399000CF92DF92EF92FF920F931F93CF93DF931B
:1039A000EC0168E873E10E94121B982E811113C08C
:1039B0006BEB75E087ED95E00E941F1A67EB75E0F1
:1039C0000E941F1A6FEA75E00E941F1A64E271E0FC
:1039D0000E9479264EC061E0CE010E949E1A0E859B
:1039E0001F850E5F1F4F0730110510F006E010E035
:1039F00082E00E94C10A8FEF0E94C10A6E018EE030
:103A0000C80ED11C76013DEFA32E3FE0B32E8E2DC4
:103A10008C1990E080179107D8F4F701D7012D9108
:103A20007D0189859A85820F911DB5010E94FD282F
:103A30009A8789872B853C85280F391FC901B501D5
:103A40000E94FD289C878B8780810E94C10ADFCF5E
:103A5000E12CF12C802F8E0D863039F080E00E9411
:103A6000C10ABFEFEB1AFB0AF5CF60E0CE010E945E
:103A70009E1A892DDF91CF911F910F91FF90EF90AA
:103A8000DF90CF90BF90AF909F900895EF92FF92FC
:103A90000F931F93CF93DF9300D0CDB7DEB78C0188
:103AA0007B01BE016F5F7F4F0E94C21C882359F0CB
:103AB00089819A81019711F080E005C041E0B7014A
:103AC000C8010E94301C0F900F90DF91CF911F9181
:103AD0000F91FF90EF900895EF92FF920F931F9335
:103AE000CF93DF9300D0CDB7DEB78C017B01BE0151
:103AF0006F5F7F4F0E94C21C882359F089819A8191
:103B0000029711F080E005C042E0B701C8010E94B1
:103B1000301C0F900F90DF91CF911F910F91FF906C
:103B2000EF900895BF92CF92DF92EF92FF920F93A2
:103B30001F93CF93DF938C01EB0109900020E9F7ED
:103B40002197C61BD70BFC01D787C687108A118A1D
:103B5000128A138AFB0180E090E07F01209789F0B0
:103B60007F012FEFE21AF20AD801A80FB91F2081B6
:103B700050962C93219701968430910511F0F7010E
:103B8000ECCFC8010E94C51CB82E811114C0B12C05
:103B900014C06E01C134D10518F040E4C42ED12CFC
:103BA0004C2DB701C8010E94C91B882381F3EC0C7E
:103BB000FD1CCC19DD09209761F78B2DDF91CF918A
:103BC0001F910F91FF90EF90DF90CF90BF900895DD
:103BD0009F92AF92BF92CF92DF92EF92FF920F939C
:103BE0001F93CF93DF9300D0CDB7DEB75C016B019D
:103BF0001A821982BE016F5F7F4F0E94C21C982EED
:103C00008823A9F189819A81009721F4F601118214
:103C1000108231C001960E9467298C01F6019183C0
:103C20008083009749F423C00E0D1F1D29813A811E
:103C30002E193F093A832983E980FA80E114F104BF
:103C4000C1F0F1E4EF16F10418F060E4E62EF12C77
:103C50004E2DB801C5010E94301C8111E5CFF6013F
:103C6000808191810E94FF29F60111821082912C9E
:103C700002C0F8011082892D0F900F90DF91CF9133
:103C80001F910F91FF90EF90DF90CF90BF90AF907A
:103C90009F9008959F92AF92BF92CF92DF92EF9242
:103CA000FF920F931F93CF93DF936C015B018A0107
:103CB000FA01E080F18011821082BA010E94C21CD8
:103CC000982EF801811103C01182108230C0C0818A
:103CD000D181EC16FD0620F5209729F17E01C13433
:103CE000D10518F0A0E4EA2EF12C6E2DC6010E9439
:103CF0007C1C8823C1F0CE19DF09EECF7E01C134D0
:103D0000D10518F0F0E4EF2EF12C4E2DB501C601CF
:103D10000E94301C882339F0AE0CBF1CCE19DF097D
:103D2000209761F704C0F80111821082912C892D2F
:103D3000DF91CF911F910F91FF90EF90DF90CF9087
:103D4000BF90AF909F900895CF93DF93EC014FEF1A
:103D50005FEFBA01488359836A837B831D821C828B
:103D60001F821E82188661E08AE00E949D2861E021
:103D70008AE00E9464281D8660E087E0DF91CF9191
:103D80000C946428CF93DF93EC018C819D81009784
:103D900011F00E94FF29CE01DF91CF910C942F1AD0
:103DA000FF920F931F93CF93DF9300D000D01F9209
:103DB000CDB7DEB78C01FC014081518162817381F6
:103DC0004F3FFFEF5F076F077F0709F04FC035E0F8
:103DD000F32E1B8263E0C8010E94431BC8010E94AE
:103DE0006C1B882391F1BE016D5F7F4FC8010E945B
:103DF000461D882351F18B8181110FC08B8188234F
:103E000039F189819A81A0E0B0E0DC019927882707
:103E10002C81922B2D81822B1EC0BE016B5F7F4FA8
:103E2000C8010E94461D882381F0BE016C5F7F4F50
:103E3000C8010E94461D882341F0BE016F5F7F4F7D
:103E4000C8010E946C1D8111D9CFFA9411F6D6CF0A
:103E50008FEF9FEFDC01F80180839183A283B3830E
:103E6000F801308121818281938103C0342F252F75
:103E7000CB01632F722F0F900F900F900F900F9028
:103E8000DF91CF911F910F91FF9008950F931F9392
:103E90000E94D01E6F3F2FEF72078207920711F129
:103EA0009B0133273F932F93072F182F292F332759
:103EB00011271F930F93AA27BB279F938F9386E603
:103EC00091E09F938F938AE091E09F938F930E945C
:103ED000132B8DB79EB70A960FB6F8949EBF0FBEF0
:103EE0008DBF06C06FE671E08AE091E00E94CD2AA6
:103EF0008AE091E01F910F910895AF92BF92CF9207
:103F0000DF92EF92FF920F931F93CF93DF9300D036
:103F100000D0CDB7DEB78C0161E00E949E1A6AE046
:103F200070E080E090E00E94D82781E00E94C10A02
:103F300085EA0E94C10A6AE070E080E090E00E9499
:103F4000D82760E0C8010E949E1A64EF71E080E00B
:103F500090E00E94D827A12CB12C61E0C8010E94FA
:103F60009E1A81E00E94C10A81E00E94C10A60E0BD
:103F7000C8010E949E1A6AE070E080E090E00E9412
:103F8000D82764E670E0C8010E94121B61E0C801F6
:103F90000E949E1A84E00E94C10A80E00E94C10A29
:103FA000898380E00E94C10A8A8380E00E94C10A5E
:103FB0008B8380E00E94C10A8C8360E0C8010E946C
:103FC0009E1AC980DA80EB80FC8067E771E087ED9C
:103FD00095E00E9479262AE030E0B701A60187ED3E
:103FE00095E00E943B2764E271E087ED95E00E9436
:103FF000792628E1C21621E8D2062AEAE20625E55A
:10400000F206A9F06CE271E080E090E00E94D8270F
:104010008FEFA81AB80A21E1A216B10409F09DCFCA
:104020006BE372E087ED95E00E945426FFCFC80154
:104030000E94D01E6C01EE24FF24C114D104E104BF
:10404000F10409F470C0753009F46DC06115710593
:104050008240910508F045C0C8010E94461F8C01AE
:104060006BE172E087ED95E00E945426B80187ED80
:1040700095E00E9479266DE272E087ED95E00E945E
:1040800054266BEF71E087ED95E00E9454262AE0FC
:1040900030E042E050E060E070E087ED95E00E94A3
:1040A0003B2767E172E087ED95E00E9454262AE005
:1040B00030E040E050E0BA0187ED95E00E943B27F8
:1040C00069E172E087ED95E00E9454262AE030E035
:1040D00042E050E060E070E087ED95E00E943B2711
:1040E000FFCF82E0C816D104E104F104E1F0C80179
:1040F0000E94461F8C016BED71E087ED95E00E94F8
:104100005426B80187ED95E00E9479266DEE71E0A6
:1041100087ED95E00E94542660EC71E087ED95E014
:104120000E945426FFCF81E00F900F900F900F90C8
:10413000DF91CF911F910F91FF90EF90DF90CF9083
:10414000BF90AF9008959F92AF92BF92CF92DF92AF
:10415000EF92FF920F931F93CF93DF931F92CDB7F0
:10416000DEB78C01F5E09F2EAA24A394B12CC62EB5
:10417000D12CE12CF12C19826BE0C8010E94431B69
:10418000F801B786A686C08AD18AE28AF38AC80176
:104190000E94C51C811103C09A9469F70DC0C80123
:1041A0000E946C1B8823C1F3BE016F5F7F4FC80163
:1041B0000E94461D882381F381E09981911101C0FD
:1041C00080E00F90DF91CF911F910F91FF90EF90C2
:1041D000DF90CF90BF90AF909F900895BF92CF9205
:1041E000DF92EF92FF920F931F93CF93DF931F9273
:1041F000CDB7DEB78C017B016A01FC01848195811A
:10420000009729F00E94FF29F8011582148285E0A9
:10421000B82E19826DE0C8010E94431BB701C80186
:104220000E94921D882331F0B601C8010E94921DA0
:10423000811125C0BA9469F789818823F1F0198228
:1042400060E27EE4C8010E94121B882389F0BE014F
:104250006F5F7F4FC8010E94461D882349F0898106
:10426000882331F0C7010E94962AF8019583848340
:104270008981882311F085E00AC080E008C0C80168
:104280000E946C1B8823B1F281E08983D5CF0F9007
:10429000DF91CF911F910F91FF90EF90DF90CF9022
:1042A000BF900895FF920F931F93CF93DF9300D099
:1042B0001F92CDB7DEB78C0186E090E09A838983A8
:1042C00075E0F72E1B826DE1C8010E94431BC801F7
:1042D0000E946C1B811103C0FA94A1F715C0BE01A6
:1042E0006D5F7F4FC8010E94461D8823A9F38B8113
:1042F000882351F0AE014F5F5F4F63E975E0C8015D
:104300000E944A1E882341F383E995E00F900F90A5
:104310000F90DF91CF911F910F91FF900895DF9241
:10432000EF92FF920F931F93CF93DF93CDB7DEB73A
:1043300027970FB6F894DEBF0FBECDBF7C018B016F
:1043400084E090E09E838D83E5E0DE2E1F824D8128
:104350005E8160E070E0CE0101960E94BD2A65E1B9
:10436000C8010E94431BC8010E946C1B811103C03D
:10437000DA9461F716C0BE01695F7F4FC8010E94E1
:10438000461D8823A9F38F81882359F0AE014B5F26
:104390005F4FBE016F5F7F4FC8010E944A1E882396
:1043A00039F3BE016F5F7F4FC7010E94F725C70138
:1043B00027960FB6F894DEBF0FBECDBFDF91CF9129
:1043C0001F910F91FF90EF90DF900895FC01848181
:1043D000958108959F92AF92BF92CF92DF92EF9214
:1043E000FF920F931F93CF93DF93CDB7DEB72E9736
:1043F0000FB6F894DEBF0FBECDBF8C010E942F1AFE
:104400001E8695E0F92E6CE0C8010E94431BC8018E
:104410000E946C1B882319F081E08E8702C0FA94F9
:1044200091F78E85882309F473C060E177E2C801B3
:104430000E94121B882309F46BC0BE01625F7F4F8C
:10444000C8010E94461D882309F462C08E85882316
:1044500009F45EC0B801685F7F4FC8010E94461D25
:10446000F801811102C0108679C0E084FBE0EF9E64
:1044700070011124C7010E946729F8019783868380
:10448000A70160E070E00E94BD2AE12CF12CC12C54
:10449000D12CB6E0AB2EB12C86E0982EF8018085A9
:1044A000282F30E0C216D3060CF058C01A861986A1
:1044B000B886AF82BE01635F7F4FC8010E94461D70
:1044C000882319F1BE01675F7F4FC8010E94E81D74
:1044D0008823D9F0BE01645F7F4FC8010E94461D4A
:1044E000882399F0AE01495F5F4FBE016F5F7F4F38
:1044F000C8010E944A1E882341F0BE01655F7F4FBC
:10450000C8010E94461D811105C0C8010E942F1AD2
:1045100080E024C0F801A681B781AE0DBF1D8D8556
:104520008C9389859A8512969C938E9311978C858E
:1045300013968C9313978B851A968C931A97FE017A
:1045400031961496892D01900D928A95E1F7FFEF2F
:10455000CF1ADF0A8BE0E80EF11CA0CF2E960FB623
:10456000F894DEBF0FBECDBFDF91CF911F910F91A9
:10457000FF90EF90DF90CF90BF90AF909F90089505
:10458000CF93DF93EC016C817D816115710519F486
:1045900080E891E00FC00E94601A009751F4CE01AC
:1045A0000E94EA216C817D81CE010E94601A0097F1
:1045B00079F30496DF91CF910895FF920F931F93A3
:1045C000CF93DF931F92CDB7DEB78C0125E0F22E9B
:1045D00019826FE0C8010E94431BC8010E946C1B36
:1045E000882379F068EE73E0C8010E94121B8823CB
:1045F00041F0BE016F5F7F4FC8010E94461D8111CF
:1046000003C0FA9429F701C0F9808F2D0F90DF9134
:10461000CF911F910F91FF900895FF920F931F93D9
:10462000CF93DF931F92CDB7DEB78C0185E0F82ED4
:10463000198260E2C8010E94431BC8010E946C1BE2
:10464000811103C0FA94A1F708C0BE016F5F7F4FCC
:10465000C8010E94461D8823A9F381E09981911128
:1046600001C080E00F90DF91CF911F910F91FF90DB
:1046700008959F92AF92BF92CF92DF92EF92FF92F6
:104680000F931F93CF93DF931F92CDB7DEB78C01AB
:1046900075E0972EAA24A394B12CC62ED12CE12C20
:1046A000F12C198269E0C8010E94431BF801B7860A
:1046B000A686C08AD18AE28AF38AC8010E94C51CF4
:1046C000811103C09A9469F70DC0C8010E946C1B48
:1046D0008823C1F3BE016F5F7F4FC8010E94461D52
:1046E000882381F381E09981911101C080E00F90CE
:1046F000DF91CF911F910F91FF90EF90DF90CF90BE
:10470000BF90AF909F9008950F9300E020E040E0AD
:1047100060E08FEB95E00E94EB256CE772E08BEB9D
:1047200095E00E94171A64E772E087EB95E00E941B
:10473000171A6AE672E083EB95E00E94171A64E6A6
:1047400072E08FEA95E00E94171A80E58093AD052C
:1047500081E08093AE0589E995E00F910C94A41E49
:1047600089E995E00C94C21E0F9300E020E040E040
:1047700060E085EC95E00E94EB250F9108950F9382
:1047800000E020E040E060E08BEC95E00E94EB254B
:104790000F9108950F9300E020E040E060E081ED8C
:1047A00095E00E94EB250F910895FC01818D928D7B
:1047B000891B90E00895FC01918D828D981731F04E
:1047C000828DE80FF11D858D90E008958FEF9FEFAA
:1047D0000895FC01918D828D981759F0828DDF012B
:1047E000A80FB11D5D968C91928D9F5F928F90E086
:1047F00008958FEF9FEF089584E695E2892B49F0A5
:1048000080E090E0892B29F00E94642581110C94AE
:1048100000000895FC01848DDF01A80FB11DA35E87
:10482000BE4F2C91848D8F5F848FA689B7892C937E
:10483000A089B1898C9180648C93938D848D981319
:1048400006C00288F389E02D80818F7D80830895E2
:10485000CF93DF93EC01888D8823C9F0EA89FB8927
:10486000808185FD05C0A889B9898C9186FD0FC01E
:104870000FB607FCF5CF808185FFF2CFA889B989F3
:104880008C9185FFEDCFCE010E940A24E7CFDF9106
:10489000CF910895CF92DF92FF920F931F93CF9302
:1048A000DF931F92CDB7DEB76C0181E0D601589639
:1048B0008C9358975B969C915B975C968C915C97D8
:1048C000981307C05096ED91FC915197808185FD1A
:1048D0002AC0F601038D0F5FF02EF601848DF812C9
:1048E00011C00FB607FCF9CFD6015096ED91FC919F
:1048F0005197808185FFF1CFC60169830E940A2408
:104900006981EBCF838DE80FF11DE35EFE4F60837D
:10491000D6015B960C935B975296ED91FC91539761
:10492000808180620CC0D6015696ED91FC9157971C
:1049300060835096ED91FC915197808180648083D3
:1049400081E090E00F90DF91CF911F910F91FF9048
:10495000DF90CF900895BF92CF92DF92EF92FF92B7
:10496000CF93DF93EC016A017B01B22EE889F989CC
:1049700082E08083411581EE580761057105A1F041
:1049800060E079E08DE390E0A70196010E9425297F
:104990002150310941095109569547953795279579
:1049A000211580E1380798F0E889F989108260E8DC
:1049B00074E88EE190E0A70196010E94252921501C
:1049C0003109410951095695479537952795EC8549
:1049D000FD853083EE85FF852083188EEC89FD8967
:1049E000B082EA89FB89808180618083EA89FB89C2
:1049F000808188608083EA89FB89808180688083E8
:104A0000EA89FB8980818F7D8083DF91CF91FF9040
:104A1000EF90DF90CF90BF9008951F920F920FB646
:104A20000F9211242F938F939F93EF93FF93E09115
:104A3000E705F091E8058081E091ED05F091EE0544
:104A400082FD11C090818091F0058F5F2091F1056A
:104A5000821751F0E091F005F0E0E952FA4F958F9E
:104A60008093F00501C08081FF91EF919F918F911C
:104A70002F910F900FBE0F901F9018951F920F92BD
:104A80000FB60F9211242F933F934F935F936F9321
:104A90007F938F939F93AF93BF93EF93FF9387ED94
:104AA00095E00E940A24FF91EF91BF91AF919F91F1
:104AB0008F917F916F915F914F913F912F910F90C7
:104AC0000FBE0F901F90189587ED95E00E94D5239B
:104AD00021E0892B09F420E0822F08951092DA0555
:104AE0001092D90588EE93E0A0E0B0E08093DB055A
:104AF0009093DC05A093DD05B093DE058AE891E094
:104B00009093D8058093D70585EC90E09093E405C9
:104B10008093E30584EC90E09093E6058093E505AF
:104B200080EC90E09093E8058093E70581EC90E0BD
:104B30009093EA058093E90582EC90E09093EC0570
:104B40008093EB0586EC90E09093EE058093ED0565
:104B50001092F0051092F1051092F2051092F305F3
:104B60000895AF92BF92CF92DF92EF92FF920F9390
:104B70001F93CF93DF936C017B01C0E0D0E000E096
:104B800010E0F601EC0FFD1F4AE050E06281C70122
:104B90000E9448275C016EE2C7010E947B268A0DB5
:104BA0009B1D080F191F2196C330D10551F74AE00C
:104BB00050E0F6016581C7010E944827800F911FD0
:104BC000DF91CF911F910F91FF90EF90DF90CF90E9
:104BD000BF90AF9008950F93FC018AE991E0918313
:104BE000808362834383248305830F9108952AE998
:104BF00031E0FC0131832083FB01408151816281DE
:104C00007381FC01428353836483758308958AE929
:104C100091E09093F5078093F4071092F6071092B5
:104C2000F7071092F8071092F9070895CF92DF92D4
:104C3000EF92FF920F931F93CF93DF936C017A0152
:104C4000EB01E60EF71E00E010E0CE15DF0561F087
:104C50006991D601ED91FC910190F081E02DC601A2
:104C60000995080F191FF1CFC801DF91CF911F914E
:104C70000F91FF90EF90DF90CF900895611571052F
:104C800081F0DB010D900020E9F7AD0141505109A1
:104C9000461B570BDC01ED91FC910280F381E02D66
:104CA000099480E090E00895EF92FF920F931F9394
:104CB000CF93DF938C01FB01C0E0D0E064917F01D2
:104CC0008FEFE81AF80A662361F0D801ED91FC91A4
:104CD0000190F081E02DC8010995C80FD91FF70197
:104CE000EDCFCE01DF91CF911F910F91FF90EF900B
:104CF00008950C943E26DC01ED91FC910190F08129
:104D0000E02D0994DB01ED91FC9111970190F08168
:104D1000E02DBC01CD01099463E271E00C943E26C4
:104D20008F929F92AF92BF92CF92DF92EF92FF92BB
:104D30000F931F93CF93DF93CDB7DEB7A1970FB635
:104D4000F894DEBF0FBECDBF7C01C42EE52FCB0192
:104D5000D22E19A221E02D1510F02AE0D22E8E01BC
:104D60000F5D1F4F8D2C912CA12CB12C6C2D7E2F03
:104D7000A50194010E9425298C2DD29E8019112411
:104D8000015011098A3014F4805D01C0895CF8017A
:104D90008083211531054105510521F0C22EE32FF5
:104DA000CA01E4CFB801C7010E943E26A1960FB602
:104DB000F894DEBF0FBECDBFDF91CF911F910F9151
:104DC000FF90EF90DF90CF90BF90AF909F908F902B
:104DD0000895CF92DF92EF92FF920F931F93CF939C
:104DE000DF93EC016A017B012115310579F4E8813B
:104DF000F9810190F081E02D642FDF91CF911F9117
:104E00000F91FF90EF90DF90CF9009942A303105F9
:104E1000E9F477FF1AC06DE20E947B268C014427DB
:104E20005527BA014C195D096E097F092AE0CE01A8
:104E30000E949026800F911FDF91CF911F910F91BB
:104E4000FF90EF90DF90CF9008952AE0B701A60180
:104E5000CE01DF91CF911F910F91FF90EF90DF90E6
:104E6000CF900C9490269A01AB01662757FD609570
:104E7000762F0C94E9262115310541F4DC01ED91E2
:104E8000FC910190F081E02D642F09940C94902600
:104E90009A01462F50E060E070E00C943B270895A3
:104EA0000E9400280E944F270E940C03CCEFD3E2FF
:104EB0000E9404032097E1F30E94FC23F9CF1F9284
:104EC0000F920FB60F9211242F933F938F939F93BE
:104ED000AF93BF938091FB079091FC07A091FD07D2
:104EE000B091FE073091FA0723E0230F2D3720F40D
:104EF0000196A11DB11D05C026E8230F0296A11D34
:104F0000B11D2093FA078093FB079093FC07A093B1
:104F1000FD07B093FE078091FF0790910008A091D4
:104F20000108B09102080196A11DB11D8093FF07F1
:104F300090930008A0930108B0930208BF91AF912D
:104F40009F918F913F912F910F900FBE0F901F90C7
:104F500018952FB7F8946091FB077091FC0780912A
:104F6000FD079091FE072FBF08953FB7F8948091F9
:104F7000FF0790910008A0910108B091020826B5A2
:104F8000A89B05C02F3F19F00196A11DB11D3FBF81
:104F90006627782F892F9A2F620F711D811D911D11
:104FA00042E0660F771F881F991F4A95D1F7089531
:104FB000CF92DF92EF92FF92CF93DF936B017C0150
:104FC0000E94B527EB01C114D104E104F10489F07A
:104FD0000E94FC280E94B5276C1B7D0B683E734025
:104FE00090F381E0C81AD108E108F108C851DC4FFC
:104FF000EACFDF91CF91FF90EF90DF90CF900895AF
:10500000789484B5826084BD84B5816084BD85B5A3
:10501000826085BD85B5816085BDEEE6F0E080816A
:1050200081608083E1E8F0E010828081826080838B
:10503000808181608083E0E8F0E08081816080830E
:10504000E1EBF0E0808184608083E0EBF0E0808140
:1050500081608083EAE7F0E08081846080838081E2
:10506000826080838081816080838081806880838A
:105070001092C1000895833081F028F4813099F0B6
:105080008230A1F008958730A9F08830B9F08430DB
:10509000D1F4809180008F7D03C0809180008F7754
:1050A00080938000089584B58F7702C084B58F7D8A
:1050B00084BD08958091B0008F7703C08091B000C7
:1050C0008F7D8093B0000895CF93DF9390E0FC0133
:1050D000E256FD4F2491FC01EE54FD4F849188234C
:1050E00049F190E0880F991FFC01E652FD4FA59110
:1050F000B49180539D4FFC01C591D4919FB761112C
:1051000008C0F8948C91209582238C938881822307
:105110000AC0623051F4F8948C91322F3095832379
:105120008C938881822B888304C0F8948C91822B85
:105130008C939FBFDF91CF9108950F931F93CF93CF
:10514000DF931F92CDB7DEB7282F30E0F901E65785
:10515000FD4F8491F901E256FD4F1491F901EE548F
:10516000FD4F04910023C9F0882321F069830E9438
:105170003B286981E02FF0E0EE0FFF1FE053FD4F69
:10518000A591B4919FB7F8948C91611103C01095CB
:10519000812301C0812B8C939FBF0F90DF91CF9112
:1051A0001F910F910895CF93DF93282F30E0F901DD
:1051B000E657FD4F8491F901E256FD4FD491F90174
:1051C000EE54FD4FC491CC2391F081110E943B28F5
:1051D000EC2FF0E0EE0FFF1FEA53FD4FA591B491C5
:1051E0002C912D2381E090E021F480E002C080E04A
:1051F00090E0DF91CF9108950895AA1BBB1B51E168
:1052000007C0AA1FBB1FA617B70710F0A61BB70B36
:10521000881F991F5A95A9F780959095BC01CD01DB
:10522000089597FB072E16F4009407D077FD09D058
:105230000E94FD2807FC05D03EF4909581959F4F74
:105240000895709561957F4F0895A1E21A2EAA1BCB
:10525000BB1BFD010DC0AA1FBB1FEE1FFF1FA21726
:10526000B307E407F50720F0A21BB30BE40BF50B23
:10527000661F771F881F991F1A9469F760957095AC
:10528000809590959B01AC01BD01CF010895EE0F73
:10529000FF1F0590F491E02D0994A29FB001B39FE8
:1052A000C001A39F700D811D1124911DB29F700D2F
:1052B000811D1124911D08950E944D29A59F900DD7
:1052C000B49F900DA49F800D911D11240895CF933C
:1052D000DF938230910510F482E090E0E0910508C0
:1052E000F091060820E030E0A0E0B0E0309739F11E
:1052F0004081518148175907B8F04817590771F490
:1053000082819381109729F013969C938E93129724
:105310002CC0909306088093050827C021153105FD
:1053200031F04217530718F0A901DB0101C0EF016A
:105330009A01BD01DF010280F381E02DD7CF211555
:105340003105F9F0281B390B2430310580F48A81AE
:105350009B816115710521F0FB019383828304C059
:105360009093060880930508FE01329644C0FE0122
:10537000E20FF31F819391932250310939832883DF
:105380003AC02091030830910408232B41F4209166
:105390000201309103013093040820930308209107
:1053A0000001309101012115310541F42DB73EB7BF
:1053B0004091040150910501241B350BE091030835
:1053C000F0910408E217F307A0F42E1B3F0B2817F7
:1053D000390778F0AC014E5F5F4F2417350748F06E
:1053E0004E0F5F1F509304084093030881939193DD
:1053F00002C0E0E0F0E0CF01DF91CF910895CF93BC
:10540000DF93009709F487C0FC0132971382128260
:10541000C0910508D0910608209781F42081318140
:10542000280F391F80910308909104088217930771
:1054300079F5F0930408E09303086DC0DE0120E0E5
:1054400030E0AE17BF0750F412964D915C91139760
:105450009D014115510509F1DA01F3CFB383A28310
:1054600040815181840F951F8A179B0771F48D919C
:105470009C911197840F951F0296918380831296B9
:105480008D919C911397938382832115310529F483
:10549000F0930608E09305083EC0D9011396FC93EB
:1054A000EE9312974D915D91A40FB51FEA17FB077C
:1054B00079F480819181840F951F0296D90111960C
:1054C0009C938E938281938113969C938E931297D3
:1054D000E0E0F0E08A819B81009719F0FE01EC0189
:1054E000F9CFCE01029628813981820F931F209136
:1054F0000308309104082817390769F4309729F414
:10550000109206081092050802C013821282D093EE
:105510000408C0930308DF91CF910895911177C2D9
:10552000803219F089508550D0F708950F931F935A
:10553000CF93DF938C01FC0101900020E9F7CF01AC
:10554000801B910B0E946729EC01009719F0B801AC
:105550000E94CD2ACE01DF91CF911F910F91089526
:10556000FB01DC0104C08D910190801921F44150B0
:105570005040C8F7881B990B0895DC0101C06D935A
:1055800041505040E0F70895FB01DC018D910190FE
:1055900080190110D9F3990B0895FB01DC010190EA
:1055A0000D920020E1F70895FB01DC0141505040CD
:1055B00048F001900D920020C9F701C01D924150A2
:1055C0005040E0F70895AEE0B0E0E9EEFAE20C9466
:1055D000BE2D0D891E898F89988D2EE02C831A830C
:1055E000098397FF02C080E090E801979E838D8336
:1055F000AE01455E5F4F698D7A8DCE0101960E94A6
:10560000352B4D815E8157FD0AC02F8138854217A9
:1056100053070CF49A01F801E20FF31F10822E9643
:10562000E4E00C94DA2DAEE0B0E0E9E1FBE20C94AA
:10563000BE2D0D891E8986E08C831A8309838FEF26
:105640009FE79E838D83AE01475E5F4F6F89788DA4
:10565000CE0101960E94352BEF81F885E00FF11FF6
:1056600010822E96E4E00C94DA2DACE0B0E0EBE38F
:10567000FBE20C94B02D7C016B018A01FC011782C6
:105680001682838181FFBDC1CE0101964C01F701D5
:105690009381F60193FD859193FF81916F0188239A
:1056A00009F4ABC1853239F493FD859193FF819163
:1056B0006F01853229F4B70190E00E94202DE7CFD9
:1056C000512C312C20E02032A0F48B3269F030F4E0
:1056D000803259F0833269F420612CC08D3239F068
:1056E000803339F4216026C02260246023C0286002
:1056F00021C027FD27C030ED380F3A3078F426FF5F
:1057000006C0FAE05F9E300D1124532E13C08AE0CC
:10571000389E300D1124332E20620CC08E3221F4BD
:1057200026FD6BC1206406C08C3611F4206802C0CF
:10573000883641F4F60193FD859193FF81916F01C5
:105740008111C1CF982F9F7D9554933028F40C5F21
:105750001F4FFFE3F9830DC0833631F0833771F0BB
:10576000833509F05BC022C0F801808189830E5F18
:105770001F4F44244394512C540115C03801F2E0CA
:105780006F0E711CF801A080B18026FF03C0652D4B
:1057900070E002C06FEF7FEFC5012C870E94152DCE
:1057A0002C0183012C852F77222E17C03801F2E0BF
:1057B0006F0E711CF801A080B18026FF03C0652D1B
:1057C00070E002C06FEF7FEFC5012C870E940A2DA9
:1057D0002C012C852068222E830123FC1BC0832DE5
:1057E00090E048165906B0F4B70180E290E00E94BC
:1057F000202D3A94F4CFF50127FC859127FE819165
:105800005F01B70190E00E94202D31103A94F1E041
:105810004F1A51084114510471F7E5C0843611F054
:10582000893639F5F80127FF07C0608171818281CF
:1058300093810C5F1F4F08C060817181882777FDBD
:105840008095982F0E5F1F4F2F76B22E97FF09C0BD
:1058500090958095709561957F4F8F4F9F4F2068F1
:10586000B22E2AE030E0A4010E94522DA82EA818E2
:1058700044C0853729F42F7EB22E2AE030E025C0BF
:10588000F22FF97FBF2E8F36C1F018F4883579F0EA
:10589000B4C0803719F0883721F0AFC02F2F2061B6
:1058A000B22EB4FE0DC08B2D8460B82E09C024FF2B
:1058B0000AC09F2F9660B92E06C028E030E005C0D0
:1058C00020E130E002C020E132E0F801B7FE07C07D
:1058D00060817181828193810C5F1F4F06C060815E
:1058E000718180E090E00E5F1F4FA4010E94522D55
:1058F000A82EA818FB2DFF77BF2EB6FE0BC02B2DB0
:105900002E7FA51450F4B4FE0AC0B2FC08C02B2DA3
:105910002E7E05C07A2C2B2D03C07A2C01C0752C4D
:1059200024FF0DC0FE01EA0DF11D8081803311F4CA
:10593000297E09C022FF06C07394739404C0822F8D
:10594000867809F0739423FD13C020FF06C05A2CFB
:10595000731418F4530C5718732C731468F4B701AC
:1059600080E290E02C870E94202D73942C85F5CF47
:10597000731410F4371801C0312C24FF12C0B70182
:1059800080E390E02C870E94202D2C8522FF17C0F9
:1059900021FF03C088E590E002C088E790E0B701EE
:1059A0000CC0822F867859F021FD02C080E201C030
:1059B0008BE227FD8DE2B70190E00E94202DA51417
:1059C00038F4B70180E390E00E94202D5A94F7CF7D
:1059D000AA94F401EA0DF11D8081B70190E00E94C4
:1059E000202DA110F5CF332009F451CEB70180E26C
:1059F00090E00E94202D3A94F6CFF701868197819E
:105A000002C08FEF9FEF2C96E2E10C94CC2D9927EA
:105A100088270895FC010590615070400110D8F767
:105A2000809590958E0F9F1F0895FC0161507040E6
:105A300001900110D8F7809590958E0F9F1F0895C3
:105A40000F931F93CF93DF93182F092FEB018B81B7
:105A500081FD03C08FEF9FEF20C082FF10C04E81F9
:105A60005F812C813D81421753077CF4E881F981E5
:105A70009F012F5F3F4F39832883108306C0E8853D
:105A8000F985812F0995892B29F72E813F812F5F79
:105A90003F4F3F832E83812F902FDF91CF911F9116
:105AA0000F910895FA01AA27283051F1203181F190
:105AB000E8946F936E7F6E5F7F4F8F4F9F4FAF4F16
:105AC000B1E03ED0B4E03CD0670F781F891F9A1F29
:105AD000A11D680F791F8A1F911DA11D6A0F711DDD
